:100000000C941D030C9464030C9464030C94FF1271
:100010000C9464030C9464030C9464030C946403C4
:100020000C9464030C9464030C941E2A0C94F22A1E
:100030000C94DD200C9464030C9464030C9464030E
:100040000C9464030C9464030C9464030C94640394
:100050000C9464030C9443210C9464030C94640387
:100060000C9464030C9464030C9464030C94640374
:100070000C9464030C9464030C9464030C94640364
:100080000C9464030C9464030C9464030C94640354
:100090000C9464030C9464030C9464030C94640344
:1000A0000C9464030C9464030C94640329001E00F4
:1000B0001F002000210022002E00350014001A002D
:1000C0000800150017002F002B0004001600070081
:1000D00009000A003600E1001D001B00060019009F
:1000E00038000000095D0000E200E0002C00E300A1
:1000F00028003100270026002500240023002D00C1
:100100001F02130012000C0018001C003000330006
:1001100052000F000E000D000B0037004F00510081
:10012000500010001100050000000A5D0000E6000C
:10013000E4002C004C002A0001003A003B003C0087
:100140003D003E00000001003F0040004100420031
:1001500043000000010044004500000000000000D2
:10016000000001000000000000000000000000008E
:10017000095D0000010001000100010001003000E4
:100180002F0089002E002D000000000031003400F7
:1001900033000000000000000000000038003700BD
:1001A0003600000000000000000000000000000019
:1001B0000000000000000A5D0000010001000100D5
:1001C000010001000100000000000000000000002C
:1001D000000001000000000000000000000000001E
:1001E000010000000000000000000000000001000D
:1001F000000000000000000000000000095D000099
:1002000001000100010001000100000000000000E9
:1002100000000000000000000000000000000000DE
:1002200000000000000000000000000000000000CE
:1002300000000000000000000000000000000000BE
:1002400000000A5D00000100010001000100010042
:100250000100C25C0000000000000000000001007E
:10026000C35CC55CC75CC95C000000000100D55CD4
:10027000C65CC85CCA5C0000000001000000000011
:100280000000000000000000095D00000100010006
:10029000010001000100005C0000000000000000FF
:1002A000000000000000000000000000000000004E
:1002B000000000000000000000000000000000003E
:1002C00000000000000000000000000000000A5DC7
:1002D00000000100010001000100010000047F3F57
:1002E0001F643214643214783C1E1E140A05222343
:1002F000252628292A2C2D2F3032333536383A3B03
:100300003D3E4042434547494A4C4E505153555754
:10031000595A5C5E6062646668696B6D6F71737573
:1003200077797B7D7F81838587898A8C8E90929473
:1003300096989A9C9E9FA1A3A5A7A8AAACAEAFB180
:10034000B3B4B6B8B9BBBCBEBFC1C2C3C5C6C7C9CA
:10035000CACBCCCDCED0D1D2D2D3D4D5D6D7D7D884
:10036000D9D9DADADBDBDBDCDCDCDCDCDDDDDDDDD6
:10037000DCDCDCDCDCDBDBDBDADAD9D9D8D7D7D6DE
:10038000D5D4D3D2D2D1D0CECDCCCBCAC9C7C6C595
:10039000C3C2C1BFBEBCBBB9B8B6B4B3B1AFAEACDB
:1003A000AAA8A7A5A3A19F9E9C9A98969492908E86
:1003B0008C8A89878583817F7D7B79777573716F5F
:1003C0006D6B6968666462605E5C5A59575553513B
:1003D000504E4C4A4947454342403E3D3B3A3836F1
:1003E000353332302F2D2C2A292826252322FFAA07
:1003F0007F554000010101010101010101020202DA
:1004000002020202020203030303030303030404C0
:10041000040404040405050505050606060606078A
:100420000707070708080808090909090A0A0A0B43
:100430000B0B0C0C0C0D0D0D0E0E0E0F0F0F1010E4
:10044000111111121213131414151516161717186B
:100450001819191A1A1B1B1C1D1D1E1E1F202021D6
:100460002222232424252626272829292A2B2C2D1D
:100470002D2E2F30313232333435363738393A3B3E
:100480003C3D3E3F404142434445464748494A4C33
:100490004D4E4F50515354555658595A5B5D5E5FFF
:1004A000616264656668696B6C6D6F707273757795
:1004B000787A7B7D7E8082838587888A8C8E8F91F7
:1004C000939596989A9C9EA0A2A3A5A7A9ABADAF21
:1004D000B1B3B5B7BABCBEC0C2C4C6C9CBCDCFD10B
:1004E000D4D6D8DBDDDFE2E4E7E9EBEEF0F3F5F8B4
:1004F000FAFDFF04033000000010036D0061006E80
:10050000007400610036003000000016036B0061CB
:10051000006D006F006E0061006E00620061006E91
:100520000000000403090409023B00020100A0C806
:100530000904000001030101000921110100012249
:1005400040000705810308000A09040100010300B7
:100550000000092111010001228500070582032006
:10056000000A1201100100000008EDFE0000010069
:100570000102030105010902A10185020901A1008F
:100580000509190129051500250195057501810247
:100590009501750381010501093009311581257F18
:1005A00095027508810609381581257F9501750822
:1005B0008106050C0A38021581257F950175088191
:1005C00006C0C005010980A10185031A81002A83A4
:1005D00000160100260300950175108100C0050C6E
:1005E0000901A10185041A01002A9C0216010026B6
:1005F0009C02950175108100C005010906A1010545
:100600000719E029E7150025019508750181029574
:1006100001750881010507190029FF150026FF0053
:1006200095067508810005081901290595057501CC
:100630009102950175039101C00011241FBECFEFF7
:10064000DAE0DEBFCDBF04B603FE27C080913D03D4
:1006500090913E03A0913F03B09140038730904BAF
:10066000A740B04BD1F410923D0310923E0310927C
:100670003F031092400314BE84B7877F84BF0FB638
:10068000F894A89580916000886180936000109232
:1006900060000FBEE0E0F8E3099511E0A0E0B1E0F2
:1006A000EEEFFAE502C005900D92A437B107D9F735
:1006B00023E0A4E7B1E001C01D92AD33B207E1F73A
:1006C0000E9451270C94412D0C9400008091270228
:1006D00090912802A0912902B0912A028670992750
:1006E000AA27BB270697A105B10519F483E00C944E
:1006F0006D1D83E00C948E1DCF93FB018A302DE598
:10070000920791F08B302DE59207C1F0C1E089305E
:100710009D4589F4C28181E0CC2349F00E946D1D82
:100720000E946603C0E007C0C28182E0F5CF0E944C
:100730008E1D0E9466038C2FCF910895C28183E0A5
:10074000CC2319F00E946D1DEDCF0E948E1DF3CFBA
:1007500008950895089581E008950C947C031F93F3
:10076000CF93DF9300D000D00F92CDB7DEB749838F
:100770005A836B832091C10189819A8121111BC009
:100780006623A9F00E945D1E182F682F89819A8127
:100790000E94091E69817A81812F0F900F900F901E
:1007A0000F900F90DF91CF911F910C9402050E9442
:1007B000351E182FEFCF0E945D1E69817A81EDCF23
:1007C000FC01408151816281738184810C94AF036B
:1007D0000E94A11F811102C00E943E200C94AF070D
:1007E0000C94B1070C94AA0381E008950C94F403CF
:1007F000CF93C82F0E94F2038C2FCF910C94F60355
:1008000008950E9449190E9400042FEF84E39CE0A0
:10081000215080409040E1F700C0000087E797E753
:1008200090930108809300080C9467210F931F9305
:10083000CF93DF93EC010E94E0038C01BE010E9484
:10084000AD03882389F1BE01C8010E94F1108823FD
:1008500059F1BE01C8010E943211882329F18A8111
:10086000882359F101158CE51807E1F00E3D8CE560
:10087000180701F106311C4509F0B9C00E94F21EAB
:100880009A81992309F4A9C08A7A91E009F490E049
:100890009093740181119FC089E20E94CD1E0E9435
:1008A0003E1F02C00E94010480E0DF91CF911F91A2
:1008B0000F9108950E943E20F7CF0E94F21E82728F
:1008C000F801E25CFC45E431F105A0F6ED5BF24D88
:1008D0000C94DA2C0E94130FE7CF882329F00E9492
:1008E000050FE2CF8823D9F30E94F80EDDCF8823CD
:1008F00029F00E94260CD8CF8823D9F30E94190C26
:10090000D3CF882329F00E94440CCECF8823D9F37B
:100910000E94350CC9CF882329F00E94620CC4CFF5
:100920008823D9F30E94530CBFCF882329F00E945B
:10093000A20ABACF8823D9F30E94910AB5CF81E0E9
:100940000E94080FB1CF0E94890A823020F00E94D5
:10095000890A853048F282E0F3CF0E94890A863006
:1009600088F00E94890A883068F40E94F80E0E947C
:10097000890A893028F00E94890A8E3008F4B4CFA1
:1009800089E0DECF86E00E94080FF1CF0E94890A3D
:100990008F3028F00E94890A843108F4A5CF8FE0B7
:1009A000CFCF0E94890A853128F00E94890A8731B9
:1009B00008F49ACF85E1C4CF88E1C2CF0E94890AAA
:1009C000893128F00E94890A823208F48DCF89E1AA
:1009D000B7CF83E2B5CF85E360CF809174018111F9
:1009E00004C089E20E94D41E5ACF85E3FBCFCE011A
:1009F000DF91CF911F910F910C94AB0390E080E0B9
:100A000008950895972F70E027E0929F600D711D63
:100A10001124FB0196E4899FE00DF11D1124EE0FD6
:100A2000FF1FE455FF4F859194910895FC01EE0F4F
:100A3000FF1FE452FD4F859194910895CF93DF936A
:100A40000E9402050E94D506EC01811520E592075F
:100A500008F042C0811530E4930708F014C1883EC5
:100A6000910528F5803E910508F0A0C0883A9105CF
:100A700088F4853A910508F08FC08130910509F41A
:100A800095C0009709F492C0049708F08FC0D0E099
:100A9000C0E08CC08F3B910508F48CC0805C91094C
:100AA000C03CD105A0F30E941605EC017FC0811562
:100AB000904250F4C11581E0D80708F077C0C03FDC
:100AC000D10528F3D06572C0C11590E3D90708F0AD
:100AD000D0C0CE019F70E7CF811525E5920758F56C
:100AE000811534E5930708F0FDC0811542E59407B0
:100AF00050F4C11581E5D80708F4C8C0DC2FCC2715
:100B0000C16FD06A53C0982F969596959E01237019
:100B10003327C115D34508F0D6C0C1E0D0E002C0EC
:100B2000CC0FDD1F2A95E2F720E2929FC00111242D
:100B3000C82BD92BC6C0C11589E5D807A8F4C115A3
:100B400098E5D90708F0D3C0C11526E5D20708F00B
:100B50009ECF8C2F0E946C07C82FD0E0DC2FCC27B3
:100B6000CC27DF71D06222C0C1153AE5D30708F463
:100B7000C3C0CE0190568115904208F088CF8D2FCA
:100B80008F710E946C0790E0982F882788279F71AB
:100B90009C012C2BE901E6CF853A910509F4BAC0F6
:100BA000863A910509F0B9C0C2E8D0E4CE01DF91E0
:100BB000CF910895883A910509F4B2C0893A910518
:100BC00009F4B1C08A3A910509F4B0C08B3A910595
:100BD00009F4AFC08C3A910509F4AEC08B3B910586
:100BE00009F4ADC08C3B910509F4ACC08D3A910578
:100BF00009F4ABC0803B910509F4AAC08E3A910577
:100C000009F4A9C08F3A910509F4A8C0813B910568
:100C100009F4A7C0823B910509F4A6C0833B910566
:100C200009F4A5C0843B910509F4A4C0853B910556
:100C300009F4A3C0863B910509F4A2C0873B910546
:100C400009F4A1C0883B910509F4A0C0893B910536
:100C500009F49FC08D3B910509F49EC08E3B910520
:100C600009F49DC08A3B910509F49CC0C0E0D4E41E
:100C70009DCFCE019927D3FF03C0EC01D86C96CF4E
:100C8000EC01D06C93CFDF70D06A90CFCE01E4E05E
:100C900096958795EA95E1F783702C2F26952695F2
:100CA000237090E2299F90011124382B8C2F8370A0
:100CB000C1E0D0E002C0CC0FDD1F8A95E2F7C22B65
:100CC000D32BDC6873CFC1E0D0E002C0CC0FDD1FB6
:100CD0002A95E2F730E2939FC0011124C82BD92B4B
:100CE000DA6864CFD82FCC27C46FD06A5FCFDC2FEF
:100CF000CC27C06FD06A5ACF8C2F8F700E946C07A0
:100D000034E0D695C7953A95E1F7CF709C2FEC016A
:100D1000D0694CCFC1E8D0E449CFC3E8D0E446CF96
:100D2000C2EED4E443CFC9EED4E440CFCAEED4E45B
:100D30003DCFC5EBD4E43ACFC6EBD4E437CFC3EB19
:100D4000D4E434CFC4EBD4E431CFC7EBD4E42ECF1A
:100D5000CCECD4E42BCFCDECD4E428CFC3E8D5E45D
:100D600025CFCAE8D5E422CFC2E9D5E41FCFC4E934
:100D7000D5E41CCFC1E2D6E419CFC3E2D6E416CF46
:100D8000C4E2D6E413CFC5E2D6E410CFC6E2D6E47F
:100D90000DCFC7E2D6E40ACFCFE6D4E407CFC0E751
:100DA000D4E404CFCAE2D6E401CF82389105B1F190
:100DB000B0F48133910509F475C048F48932910586
:100DC00009F469C08A32910509F473C00895853326
:100DD000910509F459C08933910501F10895833EC5
:100DE0009105A9F138F4803E9105F9F0823E910514
:100DF00049F10895863E9105A9F1873E9105C9F113
:100E0000843E910519F520912F0321FF1FC0809189
:100E10002E0384FD14C087EE90E0089520912E03E8
:100E20002370A1F080EE90E0089520912E0320FD24
:100E300047C030912F0330FF09C024FF44C090E029
:100E400080E004C020912E0322FDF7CF0895209169
:100E50002E0322FD3BC030912F0330FDE3CF24FF52
:100E6000F5CFEDCF20912E0323FFF0CF24FDE7CF68
:100E7000D2CF20912E0323FD2CC030912F0331FFC0
:100E8000EECF84EE90E0089520912E0325FFDECF73
:100E900089E290E0089520912E0325FFD7CF85E3C6
:100EA00090E0089520912E0326FFD0CF8AE290E0B3
:100EB000089520912E0326FFC9CF81E390E0089585
:100EC00089E390E0089583EE90E0089582EE90E04B
:100ED000089586EE90E0089590912E0392FF06C04B
:100EE000282F28712830F9F4877F846093FF06C08B
:100EF000282F28712831F1F4877E846120912F03F7
:100F000020FF06C0382F38713830D9F4877F8160D0
:100F100021FF06C0282F28712831D1F4877E8161F6
:100F200094FD877E0895282F24712430F9F68B7F55
:100F30008860DCCF282F2471243101F78B7E8861F3
:100F4000DDCF382F3171313019F78E7F8860E0CFD7
:100F5000282F2171213121F78E7E8861E1CF0C94F9
:100F6000A8030C94A9030895E82FF0E0E558FE4F7C
:100F7000808108950895CF93DF930E94280980917E
:100F800000018091000195E0811190E0909356025C
:100F900085E0891B80935502ABE3B1E061E070E02E
:100FA0008D91E82FE295EF70F0E041A18F709B01E9
:100FB00001C0220F8A95EAF7922F9095942391A36E
:100FC00082A1822B82A381E0A034B80749F7A4E371
:100FD000B1E04BE351E0C1E0D0E08D91E82FE29524
:100FE000EF70F0E061A18F709E0101C0220F8A9521
:100FF000EAF7922F9095962391A382A1822B82A348
:101000004A175B0751F7EBE7F1E085E891E01192B1
:101010008E179F07E1F785E00E94D308DF91CF91FB
:101020000C94E8036F927F928F929F92AF92BF923F
:10103000CF92DF92EF92FF920F931F93CF93DF93A4
:10104000A6E7B1E00BE311E09BE7A92E91E0B92EF2
:10105000612CEE24E394F12C8C901D92E80189918F
:101060008E01E82FE295EF70F0E091A18F70B7014B
:1010700001C0660F8A95EAF7892F862B81A382A18A
:10108000962E9094892182A3D0EADA95F1F784E331
:10109000C82E81E0D82E30E020E0AD01415051094A
:1010A000E60179906E01872D82958F7090E0EC01BA
:1010B00088A190E0D72DDF7002C095958795DA95CD
:1010C000E2F780FD3AC0C701022E01C0880F0A94E2
:1010D000EAF7EA019881892B88832F5F3F4F2730F9
:1010E0003105F1F681A1982291A282A1682B62A319
:1010F00081E09881981101C080E0682AAA16BB0699
:1011000009F0AACF6091560270E065587E4F262DF7
:1011100045E086E791E00E94D408862DDF91CF91CB
:101120001F910F91FF90EF90DF90CF90BF90AF9005
:101130009F908F907F906F90089580E0CACFCF935B
:101140000E941208C82F0E940A09882311F1809179
:10115000550290E085589E4F0E946709811116C084
:10116000809175018F5F80937501863050F0E0911A
:101170005502F0E0E558FE4F108211821282138270
:1011800014820E94F0038C2FCF9108951092750164
:10119000F8CF8091560290E085589E4F0E948409B6
:1011A0000E94B307F0CF0895FF920F931F93CF9340
:1011B000DF93F82E092F162FD72FC42F222349F0A3
:1011C00081E0809387010E940D2190938601809396
:1011D0008501809187018823A1F0809185019091FC
:1011E00086010E941921069760F0EF2DF02FA12FA4
:1011F000BD2FCE0FDF2FD11DEC17FD0741F410924C
:101200008701DF91CF911F910F91FF9008958191F8
:101210008D93F2CF80918801811111C08091D80007
:1012200080618093D8008AE18A95F1F700C090919F
:10123000D900892F817090FF82E08093880181E03E
:1012400090918801913009F080E008950C940A098A
:101250000E942609809300018091000162E28823A8
:1012600049F080E00E942D0A0E940A09882321F09B
:101270000C943E0982E2F6CF0C94440962E070E0DF
:1012800081E091E00C94AC1262E070E081E091E0CA
:101290000C94B5120E943F0E882361F080E991E022
:1012A0000E94450E81E090E00E948E13892B11F47C
:1012B0000C94420E089580918F01883039F460E0DB
:1012C00080E991E00E94550F10928F010895CF930D
:1012D000DF93D82FC92F0E944A0990E080E00E9436
:1012E0008E13009779F4ED2FFC2FDC01A657BE4F2B
:1012F0002C912193019685309105B9F781E0DF911A
:10130000CF91089580E0FBCFCF93DF93D82FC92FE3
:101310000E945B09ED2FFC2F90E080E02191DC0121
:10132000A657BE4F2C93019685309105B9F7DF91F2
:10133000CF910895AF92BF92CF92DF92FF920F9319
:101340001F93CF93DF93362F472FE82FF0E0ED5018
:10135000FC4F71110DC06491762F862FDF91CF91D4
:101360001F910F91FF90DF90CF90BF90AF900895A5
:10137000C72FD0E02491F22E022F10E056E0659F97
:10138000C0011124EFEFF0E0BF010E94B22C832FC7
:1013900090E0880F991F35E5369FD001379FB00D3B
:1013A00011248A1B9B0B982F990F980F6F01CC1A51
:1013B000DD0AC09ED001C19EB00DD09EB00D11249B
:1013C0008B2F949FA0011124452F55276F01C41A1C
:1013D000D50AC09EA001C19E500DD09E500D112473
:1013E0005F01A91AB108AC9E6001AD9ED00CBC9EF5
:1013F000D00C1124CD2CDD24EC19FD09E09FE00177
:10140000E19FD00DF09FD00D1124ED2F62307105BA
:10141000A1F048F46115710569F06130710589F03A
:10142000EB2F852F07C06430710571F088F06630AE
:101430007105B1F76E2F722F91CFE22F2B2F8D2FC9
:10144000F9CFE22F252FF6CFEB2F822F2D2FF2CFC2
:101450002B2F8F2DE52FEECF089580939F01609362
:1014600015010895CF93DF93762FE901682F842F1C
:101470000E949A09798368838A83DF91CF910895C6
:10148000413808F040E80C94320A80915702982FB6
:101490009E7F61F4817082608093570280915A022E
:1014A000813818F080E880935A0208958A34B0F3A6
:1014B00081708864F1CF88E090E00C94012DCF9288
:1014C000DF92EF92FF926B017C010E94450AB70107
:1014D000A60188E090E0FF90EF90DF90CF900C9411
:1014E0001F2DE7E5F2E083E0808311828FEF828396
:1014F00080E883831482A7EAB1E012968C91129758
:10150000836012968C9360817181828193810C94A7
:101510005F0A8091570280FF02C08695089580E09F
:10152000089580915B02833018F48F5F80935B0293
:1015300060915702709158028091590290915A021D
:101540000C945F0A80915B02882319F0815080938C
:101550005B026091570270915802809159029091FC
:101560005A020C945F0A6091150170E08091570255
:1015700080FF0AC080919F0123E0829FC001112457
:10158000845A9D4F0C94811080919E01909114017A
:1015900023E0829FF0011124E45AFD4F891750F790
:1015A0001182108212828F5F3396F8CF909157028A
:1015B00090FF14C090919E012091140133E0939FFD
:1015C000F0011124E45AFD4F921710F00C94B30A65
:1015D0008183608342839F5F3396F6CF0895CF93D4
:1015E000DF9300D00F92CDB7DEB79091570290FFF6
:1015F0000AC09E012F5F3F4F0E94400A4B816981C4
:101600008A810E94D60A0F900F900F90DF91CF91A0
:101610000895CF93DF93EC01EC81F0E0E251FD4FB0
:101620004491E7E5F2E0628181810E94EF0A8C81BA
:101630008F5F8C83DF91CF910895CF93DF93EC017F
:10164000E7E5F2E0438162818C810E94EF0A8C81A0
:101650008F5F8C83DF91CF9108950F931F93CF936A
:10166000DF9300D00F92CDB7DEB78C018091980147
:1016700081110AC09E012F5F3F4F40E86FEF0E942B
:10168000400A8A8180939801F8016481613069F091
:101690008091980140E0662361F040E0623011F4EF
:1016A0004091980180E060E004C06091980140E0C2
:1016B00080E00E94D60AF801848190E0019663E000
:1016C00070E00E94C62C84830F900F900F90DF91E2
:1016D000CF911F910F910895AF92BF92CF92DF9259
:1016E000EF92FF920F931F93CF93DF9300D00F924F
:1016F000CDB7DEB7182FF62E042FE22E90915702A9
:1017000090FF3AC0E92FE695AE2FB0E0AB5BBE4F3D
:101710008C918093A7019E7F9230E1F59E012F5F0F
:101720003F4F812F0E94400A4B8169818A810E942C
:10173000D60A80915802811308C0809159028F11F6
:1017400004C080915A02801729F08091A90182601B
:101750008093A90110935802F092590200935A0203
:10176000EE2051F060915702709158028091590219
:1017700090915A020E945F0A0F900F900F90DF9194
:10178000CF911F910F91FF90EF90DF90CF90BF907E
:10179000AF900895823019F400915A02CACF863072
:1017A00019F410915802C5CF8930D9F3893109F65F
:1017B000E9518E2F8170D82EE695F0E0E251FC4F72
:1017C000A590B490C12CBB2460911301C61618F0EB
:1017D0000E94B30AAECF2C2D30E0A29EC001A39E82
:1017E000900DB29E900D112470E00E94B22C812FBA
:1017F000D11013C0860F40919E01420F532F511DEF
:101800009A01220F331F240F351F245A3D4F402FBA
:101810006F2D0E94400AC394D7CF861BECCFE7E51B
:10182000F2E09181282F4381628188E0890F0C9436
:101830006C0B81E00C940F0CE7E5F2E09181282F0E
:101840004381628188EF890F0C946C0B81E00C94CA
:101850001C0CE7E5F2E0628128E0620F08F46FEF0C
:10186000282F438181810C946C0B81E00C94290C0E
:10187000E7E5F2E0628128E0621B08F460E0282FCF
:10188000438181810C946C0B81E00C94380CE7E56A
:10189000F2E0438120E1420F08F44FEF282F6281EC
:1018A00081810C946C0B81E00C94470CE7E5F2E02D
:1018B000438120E1421B08F440E0282F62818181AE
:1018C0000C946C0B81E00C94560C20E00C946C0B87
:1018D000EF92FF921F93CF93DF93EC0110E0EE2481
:1018E000EA94F12C60911301161770F00E94B30A6C
:1018F0009A818C8190FF27C08F5F8C83DF91CF917D
:101900001F91FF90EF90089520919E01422F410F6B
:101910005527551FCA019A01220F331F280F391F5F
:10192000245A3D4F70E0C7010E94C62C962F8C812F
:1019300040915A0260915902199F800D11240E9412
:10194000400A1F5FCFCF8150D8CF8F929F92AF9226
:10195000BF92CF92DF92EF92FF920F931F93CF939C
:10196000DF93EC018A81BB24BA9480FD02C0BB24C2
:10197000B3948C8181110AC081E0B8122AC0809191
:101980001301815080939A0181E08C83A12C44E45F
:10199000942E80911301A816F8F00E94B30A80914A
:1019A0009A0191E0B91261C081115AC0809113016E
:1019B000815080939A011C82DF91CF911F910F91EA
:1019C000FF90EF90DF90CF90BF90AF909F908F905F
:1019D000089510929A01D8CF00919E01CA2CD12C63
:1019E0000C0D1D2D111DC801880F991F080F191FFF
:1019F000045A1D4FF80111821082128234E0E32E46
:101A0000F12C812C80919A01880D85341CF1692D6F
:101A10000E94A42C892F082E000C990BC816D906F9
:101A200091F480915A028E9DA0018F9D500D11243A
:101A30005595479555954795980160915902809124
:101A400058020E94400A8B0CF1E0EF1AF108D1F61F
:101A5000A3949FCF87FFDFCF90911301890FDBCF36
:101A6000815080939A01BC82A7CF90E0019660914B
:101A7000130170E00E94C62C80939A018C839CCF46
:101A8000EF92FF920F931F93CF93DF93EC018C8122
:101A9000811109C081E08C831092990192E09093AA
:101AA00012018093110180919E019091140123E015
:101AB000829FF0011124E45AFD4F891768F110E06C
:101AC00003E060911301161768F10E94B30A809138
:101AD000110120919901280F2093990190911201F1
:101AE000980F90931201191654F4022E000C330B28
:101AF000409113014150550B2417350734F081955F
:101B000080931101813009F41C82DF91CF911F91E4
:101B10000F91FF90EF9008951182108212828F5FD3
:101B20003396CBCFE12EF12C70E0C7010E94C62C7A
:101B300020919E01820F482F50E020919901022EA2
:101B4000000C330BE216F306BCF020911201022EBA
:101B5000000C330B2E153F057CF0809F9001112463
:101B6000245A3D4F40915A02609159028091580287
:101B70000E94400A1F5FA5CFFA01EE0FFF1FE40F7E
:101B8000F51FE45AFD4F118210821282F3CF0F939A
:101B90001F93CF93DF938C01FC0184819581019683
:101BA0008170992795838483C0E0D5E580911301E6
:101BB000C81730F0DF91CF911F910F910C94B30AA9
:101BC00020919E01422F4C0F5527551FCA019A01A3
:101BD000220F331F280F391F245A3D4F8C2F869513
:101BE000F80144815581840F952F911D817040919A
:101BF0005A02609159028D9F802D11240E94400A43
:101C0000CF5FD4CF0F931F93CF93DF93EC0110E0FE
:101C100000E0909113019017110609F06CF40E94F6
:101C2000B30A8C8190E00196817099278C83DF91B3
:101C3000CF911F910F91089520919E01A801420F0D
:101C4000511D9A01220F331F240F351F245A3D4F77
:101C50004C81609159028091580296959017110617
:101C600051F04CF0442349F040915A020E94400A3E
:101C70000F5F1F4FCECF4423B9F340E0F7CF8091E1
:101C8000A90108951092A901089525E0E7E5F2E081
:101C9000DC0101900D922A95E1F72091A701309186
:101CA000A8014091A901FC0125833683478308954B
:101CB000E7EAF1E011828281846082830895E7E59A
:101CC000F2E080818E7F80830E94580EE7EAF1E087
:101CD0008281816082832FEF80E792E021508040F3
:101CE0009040E1F700C000000C94B30AE7E5F2E091
:101CF00080818E7F808360817181828193810E9447
:101D00005F0A0E94580EE7EAF1E0828181608283D7
:101D10002FEF80E792E0215080409040E1F700C033
:101D200000000C94B30A60915702669570E04BE096
:101D300050E086E191E00E94EC2C892B19F481E0BF
:101D40008093A8010E940D219093A1018093A0018E
:101D50008091A90184608093A90108959091570210
:101D600090FF3AC0917081112DC0926090935702FC
:101D70008091A90181608093A901662351F060914F
:101D80005702709158028091590290915A020E9414
:101D90005F0A60915702669570E04BE050E086E183
:101DA00091E00E94EC2C892BA1F00E94580E81E05A
:101DB0008093A30140915A02609159028091580288
:101DC0000C94650C853210F09864D0CF880F982B56
:101DD000CDCF0E94930EEBCF0895682F90915702BC
:101DE000969581E0890F853208F081E00C94AE0E63
:101DF00081E00C94ED0E682F9091570296958FEF2D
:101E0000890F09F484E20C94AE0E81E00C94FB0E71
:101E100061E00C94AE0EE7E5F2E0808181608083A2
:101E200086950C94080F8091570280FD0C94760ED5
:101E30000C940B0F60E00C94AE0E8091A601811102
:101E400033C00E94A11F811104C00E943E200E9445
:101E5000710A0E945B0A6093570270935802809344
:101E6000590290935A028091A90183608093A9013D
:101E70006E7F61F40E94710A0E945B0A60935702B0
:101E8000709358028093590290935A020E94450A17
:101E90000E94580E8091570280FF03C086950E94D1
:101EA0001A0F81E08093A60108951F93CF93DF93CB
:101EB000EC01162F8F8180FF0CC0888180FF24C029
:101EC00080915702816080935702888186950E9495
:101ED000AE0E8F8181FF06C0212F4B816A818981DF
:101EE0000E946C0B8F8182FF05C08E81882379F060
:101EF0000E94930E8F8183FF03C081E08093A30132
:101F0000DF91CF911F9108950E945F0EE2CF0E9452
:101F1000580EF0CFEF92FF920F931F93CF93DF9362
:101F20008091A801882309F468C08091A701E091FD
:101F30005702E695E81BE093A201823009F064C0E5
:101F4000F0E0E651FD4FE491CE2FD0E009E01BE038
:101F50008091A301882389F01092A3010E940D2192
:101F60009E0120953095820F931F9093A10180933D
:101F7000A0011092A5011092A4018091A00190915E
:101F8000A1010E9419218C179D07B8F180919D0134
:101F90008823B1F010929D0180919B0190919C014A
:101FA0000E9419218033954758F00E940D2190938B
:101FB0009C0180939B018091A90188608093A90175
:101FC000E090A401F090A501E091A001F091A101A1
:101FD000CE0FDF1FD093A101C093A00180EA91E052
:101FE000F80109958091A4019091A501892B29F40C
:101FF000EF2819F081E080939D01DF91CF911F912F
:102000000F91FF90EF900895863049F4F0E0E95188
:10201000FD4FE491CE2FD0E00DE11BE099CF893048
:1020200051F4E695F0E0EC51FD4FE491CE2FD0E075
:1020300008E61CE08DCF8F3051F4E695F0E0EF51CB
:10204000FD4FE491CE2FD0E005EA1CE081CF853131
:1020500049F4F0E0E252FD4FE491CE2FD0E000E4ED
:102060001DE076CFC8EED3E007EC1DE0883109F41F
:102070006FCF833239F4ECEDF2E0C591D4910DE2EB
:102080001BE066CFC4EFD1E002E01EE0843209F429
:102090005FCFC0EDD7E00CE21AE05ACF3BB1242F5E
:1020A000209523233BB1432B3FB7F894680F791F4A
:1020B0008617970711F43FBF0895FC015191CF0196
:1020C000E8E04BB9000000C057FF2BB9550F0000E6
:1020D00000C000C000C02BB900C0EA9591F7E8CF5E
:1020E0002AB1242B2AB99B01220F331F620F731FC1
:1020F0000E944E1087EC90E00197F1F700C00000BD
:10210000089548E00C9470100F931F93CF93DF93C2
:10211000C62FD42F022FFC0182818823C9F060933F
:10212000AC010E940D219093AB018093AA0180E243
:102130008C0F883008F050C0C77081E001C0880F54
:10214000CA95EAF7DF91CF911F910F910C94AF16CA
:102150001091AC01161335C08091AA019091AB018A
:102160000E941921883C910560F5C0E2CD0F1D1732
:10217000B9F080E2810F883040F4177081E001C02F
:10218000880F1A95EAF70E94B616C83048F481E025
:102190009D2F977001C0880F9A95EAF70E94AF169D
:1021A000802F0E949C16C830B8F4D77081E001C01F
:1021B000880FDA95EAF7DF91CF911F910F910C9478
:1021C000B61680E28C0F883038F4C77081E001C009
:1021D000880FCA95EAF7EFCFDF91CF911F910F914A
:1021E00008959C01CB01233F4CE5340731F190F475
:1021F000283DFCE53F07E9F0293D4CE5340769F14E
:10220000273D3C4579F426E241EE61EE0E948410C0
:1022100080E00895253FFCE53F07B9F090F0263FA8
:102220003C45B9F0FC0182818823D1F01092AC01C9
:10223000089527E245EE65EEE9CF26E241EE60EE35
:10224000E5CF27E245EE64EEE1CF26E241EE62EE15
:10225000DDCF27E245EE66EED9CF28E241E0EBCFB5
:1022600081E008951F93CF93DF93EC01FB0112816E
:10227000112309F40CC10E94B41F90932F03809383
:102280002E03C031FCE5DF0709F4CEC008F054C0CE
:10229000C830ECE5DE0709F4B5C038F5C4308CE58C
:1022A000D80709F4A7C070F4C230FCE5DF0709F4D1
:1022B0008EC0C330DC4509F499C0812FDF91CF91E6
:1022C0001F91089580912E038061C630ECE5DE07F2
:1022D00009F480C080912E038860C730DC4508F483
:1022E00079C080912E03806275C0CC308CE5D80710
:1022F00009F492C070F480912E038C60CA30FCE522
:10230000DF0709F467C008F481C080912E038E7F37
:1023100061C080912E03877FCE30ECE5DE0709F4A3
:1023200059C080912E038B7FCF30DC4508F452C01A
:1023300080912E038F7E4EC0CB3F8CE5D80709F4E9
:102340005DC030F5C331FCE5DF0709F475C078F4F2
:10235000C131ECE5DE0709F46BC0C231DC4509F0A0
:10236000ACCF0E94491980912E038F7733C0C531BD
:102370008CE5D80709F468C008F47CC080912F036D
:102380008160CA3FDC4509F098CF80932F0324C0B9
:10239000CF3F8CE5D80709F453C060F480912F0338
:1023A0008D7FCD3FFCE5DF0781F3D0F180912F03D6
:1023B0008360EBCFC130EDE5DE0709F464C008F4BB
:1023C0004FC0C230DD4509F078CF80E05DC080911C
:1023D0002E03816080932E0380912E0390912F0312
:1023E0000E94C21F0E94491910E067CF80912E03FE
:1023F0008260F0CF80912E038460ECCF80912F0318
:102400008260C3CF80912E038064E4CF0E9449197B
:1024100080912E038068DECF80912E038D7FDACFEE
:1024200080912F038E7FB1CF80912E038F7DD2CFED
:1024300080912E038F7BCECF80912E03837FCACFD6
:1024400080912F038C7FA1CF80912E0382FB99274F
:1024500090F921E0922790FB82F990FB83F9BACFA3
:1024600080912F03982F909591708E7F892B90FBF0
:1024700081F98BCF0E94491990912E03892F97FBE8
:1024800087F98058A7CF81E00E944020A5CF11E0B6
:1024900014CF8EE14A9B02C08150E1F74A9BFECFE8
:1024A00008955A9880E28A95F1F75A9A0895FC01A6
:1024B0003BE03A95F1F720E090E080E031E040E148
:1024C0004A95F1F7880F4A9B02C08160232742E0BA
:1024D0004A95F1F7000040E14A95F1F79F5F6913D3
:1024E000EECF90E19A95F1F799B132E03A95F1F794
:1024F000000040E14A95F1F792FB992790F9922765
:102500002081920F90830895EF92FF920F931F9373
:10251000CF93DF930F92CDB7DEB719828C017C0188
:10252000E60EF11C0E151F0561F481E099819111F1
:1025300080E00F90DF91CF911F910F91FF90EF906E
:1025400008950E94491268E0CE0101960E94571238
:10255000F80181938F01E6CF9093AF018093AE0194
:102560006093AD01529A5A9A08959093AF01809367
:10257000AE016093AD0152985A9AEA9AE9E6F0E00A
:1025800080818F7C808308956150770B91E001C03A
:10259000990F6A95EAF720E031E0911108C02223F3
:1025A00091F05A9A80E28A95F1F75A980895492F46
:1025B000482339F05A9A232740E24A95F1F7969535
:1025C000ECCF5A98F9CF5A98EDCFFF920F931F9303
:1025D000CF93DF93EC018C01060F111DC017D107BB
:1025E00031F4DF91CF911F910F91FF900895F990F1
:1025F0000E94511268E08F2D0E94C412EFCF1F92EB
:102600000F920FB60F9211240F931F932F933F93A6
:102610004F935F936F937F938F939F93AF93BF93EA
:10262000EF93FF93CF93DF930F92CDB7DEB719826D
:102630000E94491267E0CE0101960E945712082FAE
:10264000069506950695982F92959570202F2570E2
:10265000920F292F2370969596958770920F891364
:1026600044C08981811141C08091AD018017E8F19A
:1026700020E12A95F1F75A9A529A82E08A95F1F769
:1026800000C0A8E00A9FC00111240091AE01109182
:10269000AF01080F191F5A98F8016581662321F0D0
:1026A000868197810E94E5120E945112F0E1FA950D
:1026B000F1F75A9852985A9A20E12A95F1F7D801E1
:1026C00012966C911297662331F113968D919C911D
:1026D0000E948412D801ED91FC91882311F088E0CA
:1026E00001C082E080830E9449120F90DF91CF9158
:1026F000FF91EF91BF91AF919F918F917F916F91DA
:102700005F914F913F912F911F910F910F900FBEAD
:102710000F901F901895ED91FC91E1CF0F931F93AF
:10272000CF93DF932091AD01281719060CF471C0E7
:102730008C0193E0000F111F9A95E1F7C091AE0153
:10274000D091AF01C00FD11FF894529A5A9825E04A
:102750002A95F1F70000982F969595708570980F3F
:10276000892F837096959695980F092B0E94511288
:1027700000C067E0802F0E94C41280E18A95F1F7C3
:1027800052985A9A4A9B17C087E090E04A9915C020
:102790006D81662321F18E819F810E9484128111B7
:1027A0001EC0529A5A9AE881F98182E08083789417
:1027B00082E090E00DC000C0E5CF019771F4529A1D
:1027C0005A9AE881F98181E08083789481E090E0F1
:1027D000DF91CF911F910F91089500C0D7CF0E9434
:1027E000491220E22A95F1F75A98529A80E18A9587
:1027F000F1F76A81662321F08B819C810E94E512AA
:102800000E945112E881F9811082789490E080E072
:10281000DFCF84E090E0DCCF9093B5018093B401EA
:102820000895E091B401F091B501309721F0019045
:10283000F081E02D099480E00895E091B401F091D9
:10284000B501309721F00280F381E02D09940895BD
:10285000E091B401F091B501309739F022E0DC014C
:102860002C930480F581E02D099408952091B20104
:102870003091B3012817390771F09093B301809319
:10288000B201E091B401F091B501309721F00680DA
:10289000F781E02D099408952091B0013091B101A4
:1028A0002817390771F09093B1018093B001E0913E
:1028B000B401F091B501309721F00084F185E02D4D
:1028C0000994089585B7806885BF85B7806885BFFE
:1028D0000895089508950C94691408950C946D1446
:1028E0000E9462140E946A140C946B140E940421CA
:1028F0000E94BB070E9478210E941D0F0C946E1449
:10290000BF92CF92DF92EF92FF920F931F93CF93DC
:10291000DF93CDB7DEB72A970FB6F894DEBF0FBEB0
:10292000CDBF0E949F080E940A09882309F471C044
:1029300087EBC82E81E0D82E10E000E0B02E802F6B
:102940000E94B407E82EF601F1906F01F81609F421
:102950005AC080913C0281FD0E94BA0790E080E05D
:10296000FE242F2D30E0482FB901082E02C07595A6
:1029700067950A94E2F760FF41C08E83BF8281E0D1
:1029800090E06C0102C0CC0CDD1C4A95E2F72E2DC4
:1029900030E02C213D21232B09F480E088870E9420
:1029A0000D218160782F9A8789874E815F816885A4
:1029B0008A850E942A15F801E954FE4F80818C25F2
:1029C00080830E9405230E9411149091B6018917FB
:1029D00089F10E9411148093B6012A960FB6F894DB
:1029E000DEBF0FBECDBFDF91CF911F910F91FF9042
:1029F000EF90DF90CF90BF900C94F8030196873052
:102A0000910509F0B0CF0F5F1F4F0A30110509F093
:102A100095CF8FEF89838A831B820E940D2181606D
:102A2000782F9D838C8349815A816B818D810E948F
:102A30002A15C7CF2A960FB6F894DEBF0FBECDBFBA
:102A4000DF91CF911F910F91FF90EF90DF90CF908A
:102A5000BF900895CF93DF93CDB7DEB72B970FB616
:102A6000F894DEBF0FBECDBF4F83588769877A8742
:102A70008B871E821D8285E0FE013796DE0111964E
:102A800001900D928A95E1F749815A816B817C8191
:102A90008D819E812B960FB6F894DEBF0FBECDBF01
:102AA000DF91CF910C94E91BFC01808191810C9402
:102AB0009F1ECF93C82F882309F4E6C08238C1F443
:102AC0000E94111481FDE0C089E30E94CD1E0E9486
:102AD0003E1F2FEF81EE94E0215080409040E1F7BF
:102AE00000C0000089E30E94D41ECF910C943E1FC9
:102AF0008338A1F40E94111480FDC6C083E50E94B2
:102B0000CD1E0E943E1F2FEF81EE94E021508040A9
:102B10009040E1F700C0000083E5E5CF8438A1F4E0
:102B20000E94111482FDB0C087E40E94CD1E0E9455
:102B30003E1F2FEF81EE94E0215080409040E1F75E
:102B400000C0000087E4CFCF8CEF8C0F813A48F4AF
:102B50008C2F0E942025811197C08C2F0E94CD1EA2
:102B6000C4CF80E28C0F883048F4C77081E001C088
:102B7000880FCA95EAF70E94F51EB7CF8BE58C0F38
:102B8000833068F481E890E0C53A31F083E890E062
:102B9000C63A11F482E890E0CF910C94361488E59F
:102BA0008C0F873108F068C082EE90E0C83A09F4D3
:102BB00060C089EE90E0C93A09F45BC08AEE90E00B
:102BC000CA3A09F456C085EB90E0CB3A09F451C0FB
:102BD00086EB90E0CC3A09F44CC083EB90E0CB3B21
:102BE00009F447C084EB90E0CC3B09F442C087EB8A
:102BF00090E0CD3AF1F18CEC90E0C03BD1F18DEC5E
:102C000090E0CE3AB1F183E891E0CF3A91F18AE8D1
:102C100091E0C13B71F182E991E0C23B51F184E95D
:102C200091E0C33B31F181E292E0C43B11F183E2D8
:102C300092E0C53BF1F084E292E0C63BD1F085E240
:102C400092E0C73BB1F086E292E0C83B91F087E2A8
:102C500092E0C93B71F08FE690E0CD3B51F080E708
:102C600090E0CE3B31F090E080E0CA3B11F48AE284
:102C700092E0CF910C944C14C03F30F08C2F0E9406
:102C80001322CF910C94FA22CF910895882309F44E
:102C900052C0823871F40E94111481FF4CC089E344
:102CA0000E94CD1E0E943E1F89E30E94D41E0C94F8
:102CB0003E1F833859F40E94111480FF3CC083E505
:102CC0000E94CD1E0E943E1F83E5EFCF843859F449
:102CD0000E94111482FF2FC087E40E94CD1E0E9423
:102CE0003E1F87E4E2CF9CEF980F913AF0F290E21A
:102CF000980F983050F4877091E001C0990F8A9531
:102D0000EAF7892F0E94FB1ED2CF9BE5980F9330E4
:102D100020F490E080E00C94361498E5980F9731F9
:102D200020F490E080E00C944C14803F20F00E944E
:102D30007B220C94FA220895CF93C82F0E94591534
:102D4000C93349F42FEF87EE93E021508040904043
:102D5000E1F700C000008C2FCF910C944616882319
:102D600021F00E94F51E0C943E1F0895882321F047
:102D70000E94FB1E0C943E1F0895BF92CF92DF92DB
:102D8000EF92FF920F931F93CF93DF936C01D62F97
:102D9000C72FFC01058102950F70128111110E944D
:102DA000121F0E94EB1EE82E882371F01123B1F050
:102DB00080E28D0F883090F082E00E94891F0E948F
:102DC000EB1E91E0E82EE926BC2EB2949FE0B922DA
:102DD000EB2DF0E0E95AF24D0C94DA2CE12CF4CF13
:102DE0000C2F0F70C07F11F00295007F1123A9F006
:102DF000002359F080E28D0F883010F0D11109C006
:102E0000802F0E94F51E0E943E1F8D2F0E94591593
:102E100014C0802F0E94051FF6CF8D2F0E944616EA
:102E2000002359F080E28D0F883010F0D1112CC0B2
:102E3000802F0E94FB1E0E943E1F2B2D2850330B1B
:102E40002430310520F40E9411140E94F803EE2072
:102E500009F4D5C10E94E71E80FDD1C1F60112829E
:102E60000E94E11E0E946D1DC6010E9409190E9468
:102E7000E11EDF91CF911F910F91FF90EF90DF90B6
:102E8000CF90BF900C948E1D802F0E940B1FD3CF2C
:102E9000FC2FFF70FF2EC07FC03219F0F29480EF3C
:102EA000F822DD2369F0D13049F1112391F100239B
:102EB00051F1F601858180FFA8CF8F70858323C0F3
:102EC000112381F0011106C00E94251F8F290E9445
:102ED000AF16B3CF0130C1F70E94251F8F290E9482
:102EE0002B1FABCF011106C00E94341F8F2D0E94F3
:102EF000B616A3CF013009F4A0CFF6CF112329F0E5
:102F0000063008F09ACF8F2DE2CF053008F095CF2C
:102F1000EDCF002359F3D93349F4FFEF27EE33E027
:102F2000F15020403040E1F700C000008D2F0E949A
:102F3000461683CF8C2F86958695837069F08130F5
:102F400009F07BCF8D2F9C2F9370111102C090E060
:102F500080E00E944C1471CF8D2F9C2F9370111123
:102F600002C090E080E00E94361467CF112309F17F
:102F7000D53F99F0D63FB9F0D43F49F4809128036A
:102F800090912903816090932903809328038D2FCA
:102F90000E9413220E94FA2250CF80912803909120
:102FA00029038260F0CF80912803909129038460E7
:102FB000EACFD53F89F0D63FA9F0D43F49F48091BC
:102FC0002803909129038E7F9093290380932803EF
:102FD0008D2F0E947B22DECF8091280390912903C0
:102FE0008D7FF2CF80912803909129038B7FECCFC6
:102FF0008C2F837009F041C011111FCF4D2F4295C6
:1030000046954770440F440F0D2F0F7010E030E0CD
:1030100020E0042E04C0000F111F221F331F0A944A
:10302000D2F760E070E0CB01D4FF0FC06FE070E03A
:1030300080E090E004C0660F771F881F991F4A95B3
:10304000D2F76095709580959095C695C695C3709A
:10305000602B712B822B932BC23049F058F4C13076
:1030600019F00E941F1DE9CE0E940D1DE6CE0E94A0
:10307000311DE3CE0E940B1DE0CE8695112311F089
:103080008C2F8170882309F4D8CE4D2F4295469518
:103090004770440F440F0D2F0F7010E030E020E018
:1030A000042E04C0000F111F221F331F0A94D2F7F1
:1030B00060E070E0CB01D4FF0FC06FE070E080E013
:1030C00090E004C0660F771F881F991F4A95D2F7BA
:1030D0006095709580959095C695C695C370602B48
:1030E000712B822B932BC23049F058F4C13019F068
:1030F0000E94E41DA2CE0E94D21D9FCE0E94F61D0A
:103100009CCE0E94471D99CECF70112329F08C2FA1
:103110000E946D1D8D2FDBCE8D2F0E94B6168C2F39
:103120000E948E1D8ACED23F89F160F4D03FC9F053
:10313000D13F29F1112309F442C0011166CE8C2F31
:103140008F7121C0D33F39F1D43FA1F7112369F129
:10315000CF718C2F0E946D1D63E08C2F0E94741F15
:103160006CCE112341F0053008F067CE8C2F8F71A3
:103170000E94B11D62CE063008F05FCEF7CF8C2FD3
:103180008F71112369F20E946D1D57CE8C2F8F71A4
:103190001123C9F3C5CF112329F08C2F8F710E9401
:1031A000581D4BCE0E94531D48CE81E00E94891FBE
:1031B000023008F442CE82E00E94891F3ECE0023F6
:1031C00059F0D93309F0B2CE8FEF97EEE3E081509A
:1031D0009040E040E1F7A8CE8C2F8F71A1CF4C2F0B
:1031E0004F706D2FC6010E94FE040E94831C25CEE5
:1031F0004C2F4F706D2FC6010E9401051ECEDF912E
:10320000CF911F910F91FF90EF90DF90CF90BF90E3
:1032100008950F931F93CF93DF93EC018B819C81D3
:10322000892B29F08881998189238F3F29F4DF91A7
:10323000CF911F910F910895CE010E94160488230B
:10324000B1F3688179818A810E94A91E8C010E9454
:10325000081E0E940A1DB801CE01DF91CF911F9177
:103260000F910C94BD160E94121F0E94221F0E94F3
:103270003E1F0E949C230E94FA2290E080E00E9460
:10328000361490E080E00C944C140E94DB1E0C94E9
:1032900033190E94021F0C944519E92FE295EF7033
:1032A000E250EE3070F4F0E0E959F24D0C94DA2C73
:1032B000803F19F020F4883E20F481E00895843F97
:1032C000E1F380E00895883EC0F3813FD1F7F5CF68
:1032D00093FB882780F908950E949F1E0C944D1936
:1032E000CF93DF9300D000D00F92CDB7DEB70F9011
:1032F0000F900F900F900F90DF91CF910895CF9383
:10330000DF9300D000D000D0CDB7DEB726960FB641
:10331000F894DEBF0FBECDBFDF91CF9108951F930C
:10332000CF93DF93C091C20116E08091C3018C134B
:1033300004C0DF91CF911F910895D0E01C9FF00150
:103340001D9FF00D1124EC53FE4F4081518162818D
:103350007381848195810E947F192196C770E5CF82
:103360004091F4015091F5016091F6017091F701DF
:103370008091F8019091F9010C947F191F93CF93DC
:10338000DF938091F901807FC1F48091F601882359
:10339000A1F08091C201C091C3016091F4017091CC
:1033A000F5014091F7015091F801D62FD723DA01AA
:1033B000A095B09516E0C81304C0DF91CF911F917E
:1033C000089590E04115510511F0DF3F31F4019669
:1033D0008770F1CF2A0F3B1F17C0189FF001199F6C
:1033E000F00D1124EC53FE4F21812713F0CF2081E3
:1033F0002613EDCF22812111EACF238134812417B6
:10340000350740F3241B350B283C310500F720918C
:10341000F9012F7020612093F90126E0289FF00127
:10342000299FF00D1124E753FE4F80818F7080613A
:10343000808384EF91E00E940919DF91CF911F9161
:103440000C948F19BF92CF92DF92EF92FF920F935D
:103450001F93CF93DF93CDB7DEB761970FB6F89484
:10346000DEBF0FBECDBF8C0185E0F801DE011D96E9
:1034700001900D928A95E1F7D8014C9111965C91DB
:1034800011971296EC9012978091F7019091F801A4
:10349000009709F47FC12091F4013091F501622F6A
:1034A00063236F3F09F476C11396CD90DC90B09002
:1034B000F601BB2009F411C1C816D906D0F1F601F6
:1034C000E81BF90BCF01FF24F394883C910508F029
:1034D000F12C8091F901982F907FFF2009F4B8C05A
:1034E00091117FC0FE2C351329C0241327C0E11091
:1034F00025C08F7080618093F9010E94B01984EF1C
:1035000091E00E9409198091F901D80115968C93D8
:103510008F2D61960FB6F894DEBF0FBECDBFDF9141
:10352000CF911F910F91FF90EF90DF90CF90BF90C0
:103530000895809590958C0D9D1DC5CFCD2829F0BF
:10354000852F84238F3F09F041C180E0B82FB170EF
:10355000DB2E80FF3CC08091C2012091C30136E088
:10356000821315C04D875E878D859E850E949F1EA4
:10357000292F22952F702230F0F0243018F59F70FB
:10358000F1F0F8019581907FD1F4D12C1EC090E02C
:10359000389FF001399FF00D1124EC53FE4F6181EB
:1035A000651306C06081641303C06281E6120FC018
:1035B00001968770D5CF9F7011F0882331F3805E1C
:1035C000883018F3C8010E940919FD2CA1CFEE2004
:1035D00009F49ECF8091F90181608093F901F12C6B
:1035E00097CF351306C0241304C0D801EE2009F488
:1035F0009AC04D875E878D859E850E946C198823B1
:1036000019F1EE2009F18091F901803270F02091DA
:10361000F4013091F50138872F831986DB86CA863D
:103620008C87CE0107960E94091986E0F801A4EF65
:10363000B1E001900D928A95E1F70E94BE190E94B7
:10364000B019FF24F39464CFC8010E940919F9CF7F
:10365000911113C07C2DD98AC88A6E2D89890E9448
:10366000701984EF91E00E94091986E0E4EFF1E01F
:10367000DF011D928A95E9F763C0351312C0241348
:1036800010C0E1100EC0F8018583C8010E9409191D
:10369000E4EFF1E086E0DF011D928A95E9F7FB2C6B
:1036A00037CF4D875E878D859E850E946C19882354
:1036B00059F2EE2049F28091F901803208F4B5CF39
:1036C0002091F4013091F5013A8329831B82DD8238
:1036D000CC828E83CE010196A6CFC816D90698F16A
:1036E000F601E81BF90BCF01F12C883C910508F09D
:1036F00049C0FE2CEE2009F4A7CF351332C02413A5
:1037000030C08091F90180FD23C0982F907F01F196
:10371000D80115968C931597903F39F0982F907F8C
:10372000905F8F70892B15968C93C8010E940919A0
:1037300086E0F801A4EFB1E001900D928A95E1F7DF
:103740000E94B019E5CE809590958C0D9D1DCCCF33
:1037500086E0F801A4EFB1E001900D928A95E1F7BF
:10376000D7CE4D875E878D859E850E946C1981110D
:103770005CCF8091F90181608093F901C8010E94BA
:103780000919C6CE7C2DD98AC88A6E2D89890E94D6
:1037900070196BCFEE2009F457CF4D875E878D856A
:1037A0009E850E946C19F82E882309F44DCF86E07F
:1037B000F801A4EFB1E001900D928A95E1F784EF52
:1037C00091E00E9454150E94BE19BACF81E08E2567
:1037D000BDCE1F93CF93DF93CDB7DEB72C970FB637
:1037E000F894DEBF0FBECDBF4F83588769877A87B5
:1037F0008B879C87CE0107960E94221A882369F046
:103800008A859B85892B39F04F815885842F8523A4
:103810008F3F09F071C016E05FC086E0FE01379669
:10382000DE01119601900D928A95E1F78A859B85BC
:10383000892B89F388859F8189238F3F61F32091AC
:10384000C30130E0C9010196877099274091C201F8
:103850004817190671F40E9449191092C301109279
:10386000C20186E0E4EFF1E0DF011D928A95E9F7FD
:10387000D2CF96E0929FD001939FB00D1124AC530C
:10388000BE4FFE01319601900D929A95E1F780931B
:10389000C3010E948F19BFCF819FC00111248C5397
:1038A0009E4F0E94221A8823E9F0E091C2011E9FD8
:1038B000F0011124EC53FE4F4081518162817381EC
:1038C000848195810E947F198091C20190E00196C8
:1038D000877099278093C2018091C2019091C301A2
:1038E0008913DACF2C960FB6F894DEBF0FBECDBF8A
:1038F000DF91CF911F91089569857A858B859C858D
:103900000E947F1988CFEF92FF920F931F93CF935E
:10391000DF938C01892B81F0F12CEE24E394E801F4
:103920002196F8018491843770F4843008F05FC0E8
:103930008130B1F08230A1F1DF91CF911F910F91D1
:10394000FF90EF900895853709F44CC008F43DC00E
:103950009CE7980F903780F78F770E94461649C0F2
:103960000E5F1F4FFE01849190E2980F983060F433
:103970008770FE2D01C0FF0F8A95EAF78F2F0E94F6
:10398000151F0E943E1F02C00E9459158F2D8150A5
:1039900030F2EFE9FFE03197F1F700C00000F7CF18
:1039A0000E5F1F4FFE01849190E2980F983050F403
:1039B0008770FE2D01C0FF0F8A95EAF78F2F0E94B6
:1039C0001B1FDFCF0E944616E1CF0E5F1F4FFE0187
:1039D000C491C150D8F28FE99FE00197F1F700C080
:1039E0000000F7CF0E5F1F4FFE01F490CFCF0E9473
:1039F00059158E01CBCF08950C94FB1C0E94FC1C22
:103A000060932B0270932C0280932D0290932E02D0
:103A10000C94331908950C94FE1C0F931F9300917E
:103A20002B0210912C0220912D0230912E02602B3E
:103A3000712B822B932B1F910F910C94FE1C0F93D3
:103A40001F9300912B0210912C0220912D02309196
:103A50002E0260237123822393231F910F910C94D4
:103A6000FE1C0F931F9300912B0210912C022091AA
:103A70002D0230912E0260277127822793271F91F4
:103A80000F910C94FE1C0C94FB1C0C94431D0E9483
:103A9000451D60932702709328028093290290931A
:103AA0002A020C94331960E070E0CB010C94471D9E
:103AB0000F931F9341E050E060E070E08A019B01AA
:103AC00004C0000F111F221F331F8A95D2F7C901AE
:103AD000B8011F910F910C94471D0F931F9341E064
:103AE00050E060E070E004C0440F551F661F771F70
:103AF0008A95D2F78091270290912802A0912902FD
:103B0000B0912A028A019B01082B192B2A2B3B2BEF
:103B1000C901B8011F910F910C94471D0F931F937A
:103B200041E050E060E070E004C0440F551F661FA4
:103B3000771F8A95D2F7CB01BA0160957095809571
:103B4000909500912702109128022091290230912E
:103B50002A0260237123822393231F910F910C94D7
:103B6000471D0F931F9341E050E060E070E004C0F8
:103B7000440F551F661F771F8A95D2F78091270241
:103B800090912802A0912902B0912A028A019B01FA
:103B9000082719272A273B27C901B8011F910F9130
:103BA0000C94471D0F931F93009127021091280238
:103BB0002091290230912A02602B712B822B932BAA
:103BC0001F910F910C94471D0F931F930091270293
:103BD000109128022091290230912A02602371233A
:103BE000822393231F910F910C94471D0F931F93D2
:103BF00000912702109128022091290230912A0277
:103C000060277127822793271F910F910C94471DDE
:103C1000089527E0929F800D1124982F977041E01E
:103C200001C0440F9A95EAF786958695869595E0AA
:103C3000899FF0011124E650FE4F90E080E070E093
:103C40005191DF0111979B01082E02C036952795EF
:103C50000A94E2F7217021952527242325272C9308
:103C600001968530910561F7089527E0929F800DB8
:103C70001124982F977086958695869525E0829FCA
:103C8000F0011124E650FE4F50E040E080E0219129
:103C900030E0092E02C0369527950A94E2F721708C
:103CA0003327042E01C0220F0A94EAF7822B4F5FBC
:103CB0005F4F4530510559F70895BF92CF92DF927B
:103CC000EF92FF920F931F93CF93DF938C01C090DD
:103CD0002702D0902802E0902902F0902A028091D9
:103CE0002B0290912C02A0912D02B0912E02C82A95
:103CF000D92AEA2AFB2ACFE1D0E0BC2ED701C6019F
:103D00000C2E04C0B695A795979587950A94D2F77F
:103D100080FD0EC0219788F7B12C8B2DDF91CF91BC
:103D20001F910F91FF90EF90DF90CF90BF9008957B
:103D3000B8018C2F0E941E05019761F3EECFCF933F
:103D4000DF93EC010E945D1EBE01DF91CF910C94C8
:103D50001E051F93CF93DF93EB019091C10199232F
:103D600031F0CB01DF91CF911F910C949F1E8823DE
:103D700079F0CB010E945D1E182F682FCE010E94A2
:103D8000091EBE01812FDF91CF911F910C941E055A
:103D9000CB010E94351E182FF4CF682F809121018E
:103DA000909122010C947E20682F809121019091A6
:103DB00022010C94802080912101909122010C9489
:103DC000822080912F028595859585950895809113
:103DD0002F028770089590912F02977081E009F467
:103DE00080E0089580913B02089590913B02892BD9
:103DF00080933B020895809590913B029823909385
:103E00003B02089510923B02089590913A02892B4B
:103E100080933A020895809590913A029823909366
:103E20003A02089510923A02089590913902892B2E
:103E30008093390208958095909139029823909348
:103E40003902089510923902089580913002089540
:103E500008950C94281F90913002981721F08093B8
:103E600030020C94291F089580913002882329F094
:103E70001092300280E00C94291F0895E0912101F6
:103E8000F091220180913B028083E0912101F09129
:103E90002201808190913A02892B8083E091210157
:103EA000F0912201808190913902892B8083909139
:103EB0003002992381F0E0912101F091220180816B
:103EC000892B808380912101909122010E944520BD
:103ED00081110E94341F80912101909122010C9444
:103EE0001D1408950C94711F98E0899F900111246E
:103EF000622B60932F020E946D1D80912F02859589
:103F0000859585950C94721F10922F0280E00C9479
:103F1000721F90912F028095892380932F02282F62
:103F2000277071F4282F082E000C330B92171306FC
:103F300039F08595859585950E948E1D0C94841F7A
:103F4000089590E080E00E94072D21E08C3E9E4F76
:103F500009F020E0822F089582E090E00C94F92C83
:103F600083E090E00C94F92CCF9384E090E00E94E1
:103F7000F92CC82F81E290E00E94F92C982F8C2F09
:103F8000CF910895CF93C92F682F84E090E00E94CD
:103F90000D2D6C2F81E290E0CF910C940D2DAB0193
:103FA000BC018FE090E00C941F2DAB01BC0183E1BC
:103FB00090E00C941F2D60E070E0CB010C94D51FB5
:103FC00060E070E0CB010E94CF1F0C94DB1F6CEE11
:103FD0007EEF90E080E00E942B2D60E082E090E098
:103FE0000E940D2D60E083E090E00E940D2D109264
:103FF0002B0210922C0210922D0210922E0260E0E1
:1040000084E090E00E940D2D60E081E290E00E944B
:104010000D2D60E085E090E00E940D2D60E086E0CF
:1040200090E00E940D2D6FEF87E090E00E940D2D33
:1040300040E050E0BA0188E090E00E941F2D60E06F
:104040008DE090E00E940D2D40E050E0BA0188E143
:1040500090E00E941F2D60E087E190E00E940D2D0E
:1040600040E050E0BA018CE190E00E941F2D60E03A
:1040700080E290E00E940D2D0C94E01F0C94E71F4D
:10408000682F8EE090E00C940D2D9C012E5F3F4F29
:10409000AC01485F5F4F80E02417350709F40895AD
:1040A000F90191919F019923B9F38F5FF5CF9C019D
:1040B000FC0132969FEF80E04191461751F09F3FFF
:1040C00019F4411101C0982F8F5F8630A9F79F3FE7
:1040D00009F40895290F311D97FD3A95F90162837E
:1040E0000895FC01329608962191261303C0DF0142
:1040F00011971C92E817F907B9F708950C94572007
:104100000C947120029626E0FC0111922A95E9F7A1
:104110000895089508950C948A200E948B20809120
:104120003403843049F110923D0288E190E020E4AC
:104130000FB6F894A895809360000FBE209360009E
:1041400080E00E94F8030E948B2083B7817F846007
:1041500083BF83B7816083BF7894889583B78E7F50
:1041600083BF0FB6F894A895809160008861809312
:104170006000109260000FBE08950895CF930E94D2
:1041800089200E949F080E94BD20C0E08C2F0E94C1
:10419000B407811105C0CF5FCA30C1F7CF91089530
:1041A00081E0FCCF08950C94D2200E9449190E940E
:1041B00011140E94F8030C94D3201F921FB61F9273
:1041C00011248F939F93AF93BF9380913D028111F0
:1041D00013C080912A0390912B03A0912C03B091DE
:1041E0002D034196A11DB11D80932A0390932B03AB
:1041F000A0932C03B0932D03BF91AF919F918F910A
:104200001F901FBE1F90189582E084BD93E095BD5E
:104210009AEF97BD80936E0008952FB7F894809120
:104220002A0390912B03A0912C03B0912D032FBF53
:104230000895CF92DF92EF92FF920F931F932FB7C3
:10424000F89440912A0350912B0360912C037091B4
:104250002D032FBF6A017B01EE24FF248C0130E087
:1042600020E0C016D106E206F30650F0481B590BB9
:10427000CA011F910F91FF90EF90DF90CF900895AA
:1042800041505109F3CF78941F921FB61F92112409
:104290008F939F93AF93BF9380912A0390912B03A9
:1042A000A0912C03B0912D030196A11DB11D809307
:1042B0002A0390932B03A0932C03B0932D03BF915B
:1042C000AF919F918F911F901FBE1F90189587E708
:1042D00097E7909301088093000888E19AE00FB671
:1042E000F894A895809360000FBE90936000FFCF74
:1042F0000E94A11F811102C00E943E200E94AC1F9B
:1043000080933C020E94B41F90932F0380932E034E
:104310000E94B01F682F70E090E080E00C940B1DAD
:104320008091410280FF12C06091260185E0689F64
:10433000B00111247595679575956795603871057D
:10434000A8F561157105A1F1862F089581FF09C0B7
:104350006091260185E0689FB001112475956795ED
:10436000EDCF6091260182FD0AC080914002882332
:10437000D1F09091250160912601891728F085E000
:10438000689FB0011124DACF869FB001112485E027
:10439000869F9001879F300D1124692F70E0C9011D
:1043A0000E94C62CCBCF65E070E0CECF8FE708959A
:1043B00081E008958091410280FF0CC0609124014A
:1043C00070E075956795759567956115710549F16B
:1043D000862F089581FF06C06091240170E07595D5
:1043E0006795F3CF6091240182FD0BC0909140024C
:1043F0009923A1F06091230180912401961738F050
:10440000682F70E06038710500F38FE70895899F89
:10441000C001112470E00E94C62CF4CF61E070E06E
:10442000D7CF81E00895803F31F40E94902181959B
:10443000809345020895813F19F40E949021F8CF9E
:10444000823F31F40E949021819580934402089527
:10445000833F19F40E949021F8CF893F29F40E94EC
:10446000DA218093460208958A3F21F40E94DA21DE
:104470008195F7CF8B3F31F40E94DA2181958093AB
:10448000470208958C3F19F40E94DA21F8CF843F47
:1044900031F4809143028160809343020895853F07
:1044A00021F4809143028260F7CF863F21F480910E
:1044B00043028460F1CF873F21F4809143028860FA
:1044C000EBCF883F21F4809143028061E5CF8D3F9F
:1044D00031F48091410281608093410208958E3FC2
:1044E00021F4809141028260F7CF8F3FB9F780912C
:1044F00041028460F1CF90914402803F41F4809169
:10450000450287FD10924502992371F00895813F7D
:1045100029F4809145021816ACF3F6CF823F81F45E
:1045200097FFF2CF1092440280914502909146028B
:10453000892B90914702892B49F7109240020895E8
:10454000833F19F4191674F3DFCF893F39F4809152
:1045500046021816CCF610924602D6CF8A3F29F4AE
:104560008091460287FFD0CFF6CF8B3F39F4809100
:10457000470287FFC9CF10924702C6CF8C3F29F46C
:10458000809147021816BCF3BFCF843F31F480916D
:1045900043028E7F80934302B7CF853F21F4809101
:1045A00043028D7FF7CF863F21F4809143028B7FBA
:1045B000F1CF873F21F480914302877FEBCF883F83
:1045C00021F4809143028F7EE5CF8D3F31F48091BD
:1045D00041028E7F8093410297CF8E3F21F48091DC
:1045E00041028D7FF7CF8F3F09F08ECF809141023E
:1045F0008B7FF0CF82E492E00E9428140E940D216C
:1046000090933F0280933E0208951F93CF93DF93D0
:1046100080913E0290913F020E941921AC0190913D
:1046200040022091270130E0911106C0209128011D
:104630008AE0289F900111244217530778F02091B7
:104640004402C0914502D0914602109147022111C7
:1046500009C08C2F8D2B812B09F06AC0DF91CF917F
:104660001F9108959F3F19F09F5F9093400212168B
:1046700024F40E949021809344028091440287FF99
:1046800005C00E9490218195809344021C1624F459
:104690000E949021809345028091450287FF05C0CA
:1046A0000E949021819580934502309144023323EA
:1046B000A1F020914502222381F045EB3403C00193
:1046C0001124992369F19093440245EB240390014E
:1046D0001124332349F1309345021D1624F40E941E
:1046E000DA21809346028091460287FF05C00E942E
:1046F000DA21819580934602111624F40E94DA2172
:10470000809347028091470287FF05C00E94DA210B
:10471000819580934702DF91CF911F910C94FA22EB
:1047200081E080934402D1CF81E080934502D5CFD0
:104730009F3F09F099CFAACF86E0E2E4F2E0DF01E3
:104740001D928A95E9F71092400210924102089555
:10475000833081F128F4813059F08230D1F008950E
:10476000853009F449C0B8F1863009F456C008957F
:1047700080912801482F460F5527551F4F3F51055F
:1047800024F4680F6093280108958FEF8093280127
:10479000089580912701482F460F5527551F4F3FF9
:1047A000510524F4680F6093270108958FEF8093DB
:1047B0002701089580912601482F460F5527551F40
:1047C0004F3F510524F4680F6093260108958FEF41
:1047D00080932601089580912501482F460F552783
:1047E000551F4F3F510524F4680F6093250108952C
:1047F0008FEF80932501089580912401482F460F63
:104800005527551F4F3F510524F4680F609324012D
:1048100008958FEF80932401089580912301482FFC
:10482000460F5527551F4F3F510524F4680F6093DD
:10483000230108958FEF809323010895833011F1B0
:1048400028F4813049F0823091F00895853081F16B
:1048500020F18630C1F1089580912801681720F475
:10486000861B809328010895109228010895809155
:104870002701681720F4861B809327010895109262
:104880002701089580912601681720F4861B8093E4
:104890002601089510922601089580912501681738
:1048A00020F4861B80932501089510922501089518
:1048B00080912401681720F4861B809324010895B9
:1048C00010922401089580912301681720F4861B1B
:1048D0008093230108951092230108950F931F934D
:1048E00041E050E060E070E08A019B0104C0000FED
:1048F000111F221F331F8A95D2F7C901B8010E94E8
:104900000B1D1F910F910C9449198B3109F46EC046
:1049100040F58B3071F078F4863009F450C020F403
:10492000853059F180E00895873009F451C088300E
:10493000C9F781E00895803109F466C068F48E30CB
:1049400089F790913C02892F8B7F92FF846080933E
:104950003C0282FD55C0EDCF863159F3893149F3D0
:10496000E1CF8A3249F1B8F4873211F120F48E3167
:10497000C8F28D511EC08932A9F60E9449192FEF45
:1049800083ED90E3215080409040E1F700C00000AB
:104990000E946721CECF833440F48A3308F03FC0B1
:1049A000853331F0883329F2BDCF833409F0BACF93
:1049B00080E00E946E24BDCF0E943E20BACF80913D
:1049C0003C02807F80933C0281E0809349020895FD
:1049D00090913C02892F8E7F90FF816080933C02F2
:1049E00080FDA7CF817F80933C02A3CF90913C02B2
:1049F000892F8D7F91FF826080933C0281FF99CF48
:104A000080913C028160EFCF90913C02892F877F9B
:104A100093FF886080933C0283FDF2CF8ACF895355
:104A2000C8CF80E008950C9411258E518A3030F45F
:104A3000E82FF0E0E659FE4F8081089580E0089568
:104A4000CF93C82F809149028130B9F0882331F08B
:104A50008230A1F11092490280E00DC00E94F21E46
:104A60008232D1F78C2F0E94112581111BC08C2F0F
:104A70000E9485248170CF9108950E94F21E823297
:104A800089F38C2F0E94132581110AC0C43199F03B
:104A900060F4CB3029F0C03169F782E0809349029D
:104AA00081E0E8CF81E090E0E5CFC93221F0C83362
:104AB000B9F380E0DFCF10924902FBCFC93219F180
:104AC00088F4C43101F120F4C73081F181E0D3CF03
:104AD00082EE8C0F8630D0F78C2F0E9415258093A4
:104AE0004802F4CFCE3401F140F46AE0CB3471F7E0
:104AF000809148020E94A823E9CFC13579F061E096
:104B0000C235B1F3E3CF80914802882319F01092A7
:104B10004802DCCF81E080934902ADCF61E0809113
:104B200048020E941E24D2CF6AE0F9CF8EE1809322
:104B3000280182E3809327018AE08093260184E1A3
:104B40008093250188E08093240188E280932301EB
:104B5000BDCF8091520208950F931F93CF93DF939F
:104B600000D00F92CDB7DEB78C010E94F6278230BD
:104B700011F0843021F584E089831B830A8382E06D
:104B80008093E9008FEF9091E800815095FD06C079
:104B900095ED9A95F1F700008111F5CF8091E8002D
:104BA00085FF0DC050E040E063E070E0CE0101966B
:104BB0000E9413288091E8008E778093E8000F9080
:104BC0000F900F90DF91CF911F910F910895CF9388
:104BD000DF9300D00F92CDB7DEB72091340324309D
:104BE00031F523E02983805891099B838A8382E0F1
:104BF0008093E9008FEF9091E800815095FD06C009
:104C000095ED9A95F1F700008111F5CF8091E800BC
:104C100085FF0DC050E040E063E070E0CE010196FA
:104C20000E9413288091E8008E778093E8000F900F
:104C30000F900F90DF91CF910895CF93DF93EC0108
:104C40000E94F627823011F08430F9F482E08093DC
:104C5000E9008FEF9091E800815095FD06C095ED39
:104C60009A95F1F700008111F5CF8091E80085FF5A
:104C70000CC050E040E066E070E0CE010E941328D6
:104C80008091E8008E778093E800DF91CF910895BE
:104C9000CF93DF93EC010E94F627823011F084302D
:104CA00039F581E08093E9008FEF9091E800815021
:104CB00095FD06C095ED9A95F1F700008111F5CFAD
:104CC0008091E80085FF14C050E040E068E070E0AB
:104CD000CE010E9413288091E8008E778093E8002F
:104CE00088E0FE01AAE4B2E001900D928A95E1F716
:104CF000DF91CF91089580913303811109C00E9403
:104D0000A3290E94002A8091E20084608093E2003F
:104D10000895109233030895089508950C94D520B2
:104D200042E061EC81E00E941F2942E261EC82E0F6
:104D30000C941F2980913603833009F45FC030F44E
:104D40008130C1F1823009F49BC008958A3009F4A2
:104D500087C08B3009F46DC0893009F04EC0809156
:104D60003503813209F049C08091390390913A03AB
:104D7000029708F042C08091E800877F8093E800A6
:104D80008091E80082FF35C09091F3008091F2009D
:104D9000029729F48091F1008B7F813021F480917A
:104DA000F100809352028091E8008B778093E800B5
:104DB0000C94532980913503813AF9F48091E800ED
:104DC000877F8093E8008091390390913A03892B83
:104DD00061F468E08AE492E070E00E9462288091C9
:104DE000E8008B778093E800089560E090E080E031
:104DF000F3CF809134038111C3CF0895809135039F
:104E0000813AD9F78091390390913A03892BA9F718
:104E10008091E800877F8093E8008091E80080FF20
:104E2000FCCF809133018093F1008091E8008E7770
:104E3000BDCF80913503813201F780913903909184
:104E40003A03892BD1F68091E800877F8093E800B0
:104E50000E94532980913703809333010C944919A0
:104E600080913503813249F68091E800877F8093F5
:104E7000E8000E94532980913803809353020895DB
:104E800080913503813A09F0B8CF8091E800877F9F
:104E90008093E8008091E80080FFFCCF809153026E
:104EA000C2CF84B7877F84BF0FB6F894A89580914E
:104EB0006000886180936000109260000FBE80E8FF
:104EC00080936100109261000E9470140E94A329D7
:104ED0000E94002A8091E20084608093E20078942E
:104EE0000E94892C0E94761489E291E00E940C14A1
:104EF00080913403853029F00E9480140E948A0F2B
:104F0000F7CF0E948D2080913203882389F30E947D
:104F1000BE20882369F30E94FD27EACF0C949027D6
:104F2000292F33272330310519F168F42130310559
:104F300009F44AC02230310509F44BC090E080E00A
:104F400030E020E028C02132310579F122323105EC
:104F5000A9F780E490E029EF35E061157105D9F0FB
:104F600085E890E024E735E061307105A1F0E6CFF7
:104F700099278130910599F0009741F08230910591
:104F800089F00397D9F6E3EFF4E002C0E3E2F5E03D
:104F9000849190E09F01FA01318320830895EBE032
:104FA000F5E0F6CFE9EFF4E0F3CF89E090E029E314
:104FB00035E06115710579F389E090E022E535E08F
:104FC0006130710541F3BACF82E190E022E635E02D
:104FD000E2CF8BE390E027E235E0DDCF8091340330
:104FE000843011F482E0089581E0089580915402A4
:104FF000811102C00C94EE27089580E189BD82E101
:1050000089BD09B400FEFDCF8091D8008F7D8093CB
:10501000D8008091E00082608093E0008091E00001
:1050200081FDFCCF0895AF92BF92CF92DF92FF92A5
:105030000F931F93CF93DF936C01EB018A010E94C2
:105040007229F82E811123C00115110539F0F801DC
:1050500080819181C81BD90BC80ED91EB12CA12CFF
:105060002097A9F08091E80085FD22C08091E8009A
:105070008E778093E80001151105A1F0F801808179
:105080009181A80EB91EB182A08285E0F82E8F2DE5
:10509000DF91CF911F910F91FF90DF90CF90BF9044
:1050A000AF9008950E9472298823D1F2F82EEFCF95
:1050B000F60181916F018093F1002197FFEFAF1A04
:1050C000BF0ACECFFC0180913B0390913C03861731
:1050D0009707A0F06115710529F49091E8009E777B
:1050E0009093E80090E06115710551F4911108C0AA
:1050F0008091E80082FF34C080E00895BC01F2CFC7
:10510000809134038823C1F18530C1F18091E8009A
:1051100083FD30C08091E80082FDEACF8091E800F5
:1051200080FFE1CF8091F3002091F200382F6115CC
:10513000710519F02830310558F091E0283031051B
:1051400009F090E02091E8002E772093E800CBCF83
:1051500081918093F100615071092F5F3F4FE7CF3C
:1051600080913403882341F0853041F08091E8003C
:1051700083FFBECF81E0089582E0089583E0089523
:10518000FC0180913B0390913C0386179707A0F0A8
:105190006115710529F48091E8008E778093E8000D
:1051A00090E06115710551F4911108C08091E800FB
:1051B00082FF35C080E00895BC01F2CF80913403B6
:1051C0008823C9F18530C9F18091E80083FD31C0A1
:1051D0008091E80082FDEACF8091E80080FFE1CF76
:1051E0008091F3002091F200382F6115710519F0BC
:1051F0002830310558F091E02830310509F090E071
:105200008091E8008E778093E800CBCF84918093E3
:10521000F1003196615071092F5F3F4FE6CF8091C9
:105220003403882341F0853041F08091E80083FF0A
:10523000BDCF81E0089582E0089583E00895982F1E
:10524000973028F08F708093E90081E00895909363
:10525000E900242F762F50E0981731F07091EC0080
:105260002091ED005091F00021FD02C09F5FE8CF3A
:105270003091EB003E7F3093EB003091ED003D7FAD
:105280003093ED003091EB0031603093EB00709380
:10529000EC002093ED005093F0002091EE0027FDEC
:1052A000E5CF80E008958091350387FF13C080919A
:1052B000E80082FF06C08091E8008B778093E800C9
:1052C00004C0809134038111F2CF0895809134039A
:1052D0008823D9F38091E80080FFF8CF8091E8001F
:1052E0008E77ECCF2091E4003091E50095E6A9019E
:1052F0002091EC00822F817020FF06C08091E80091
:1053000080FF06C080E008952091E80022FD1AC0C9
:1053100080913403882389F0853089F08091EB00F7
:1053200085FD0FC02091E4003091E500421753073E
:10533000F9F29150E1F684E0089582E0089583E067
:10534000089581E008950E94112A0E94192AE0EE32
:10535000F0E0808181608083E8EDF0E080818F77EC
:10536000808319BCA7EDB0E08C918E7F8C938081F7
:105370008F7E80831092330308950F931F93CF93F2
:10538000DF930E94112A0E94192AC8EDD0E088817B
:105390008F77888388818068888388818F7D8883E0
:1053A00019BC109234031092300310923203109201
:1053B000310300EE10E0F80180818B7F80838881CB
:1053C0008160888342E060E080E00E941F29E1EE76
:1053D000F0E080818E7F8083E2EEF0E0808181606A
:1053E0008083808188608083F80180818E7F8083C4
:1053F000888180618883DF91CF911F910F910895FB
:10540000E8EDF0E080818F7E8083E7EDF0E0808141
:105410008160808384E082BF81E0809333030C94B9
:10542000BD29E8EDF0E080818E7F80831092E2005C
:1054300008951092DA001092E10008951F920F92E1
:105440000FB60F9211242F933F934F935F936F9357
:105450007F938F939F93AF93BF93EF93FF9380912D
:10546000E10082FF0BC08091E20082FF07C08091C3
:10547000E1008B7F8093E1000E94882C8091DA000C
:1054800080FF19C08091D80080FF15C08091DA009C
:105490008E7F8093DA008091D90080FF96C080E1F2
:1054A00089BD82E189BD09B400FEFDCF81E0809312
:1054B00034030E947B268091E10080FF19C0809117
:1054C000E20080FF15C08091E2008E7F8093E200B1
:1054D0008091E20080618093E2008091D800806238
:1054E0008093D80019BC85E0809334030E948D26F8
:1054F0008091E10084FF2BC08091E20084FF27C0EF
:1055000080E189BD82E189BD89B5982F917080FFC6
:10551000FBCF8091D8008F7D8093D8008091E100EF
:105520008F7E8093E1008091E2008F7E8093E20085
:105530008091E20081608093E200809130038823B3
:1055400009F449C084E0809334030E948E26809140
:10555000E10083FF29C08091E20083FF25C0809194
:10556000E100877F8093E10082E080933403109212
:1055700030038091E1008E7F8093E1008091E20012
:105580008E7F8093E2008091E20080618093E20050
:1055900042E060E080E00E941F298091F000886076
:1055A0008093F0000E948C26FF91EF91BF91AF9104
:1055B0009F918F917F916F915F914F913F912F912B
:1055C0000F900FBE0F901F90189519BC10923403C6
:1055D0000E94892670CF8091E30087FD93E090932D
:1055E0003403B3CF1F920F920FB60F9211242F9353
:1055F0003F934F935F936F937F938F939F93AF935B
:10560000BF93CF93DF93EF93FF93D091E900DF70C7
:105610008091EC00C82FC17080FDC0E81092E900B5
:105620008091F000877F8093F00078940E94362B61
:105630001092E9008091F00088608093F000CD2BFB
:10564000CF70C093E900FF91EF91DF91CF91BF91AF
:10565000AF919F918F917F916F915F914F913F910A
:105660002F910F900FBE0F901F9018951F93CF93FF
:10567000DF93CDB7DEB7AA970FB6F894DEBF0FBEA3
:10568000CDBF85E393E02091F100FC012193CF0190
:10569000F3E08D339F07B9F70E949A268091E800C6
:1056A00083FF1EC180913503909136039A3008F034
:1056B00017C1E92FF0E0EB58F24D0C94DA2C80384A
:1056C00099F0823809F00CC1809139038F708730CE
:1056D00008F006C18093E9008091EB0085FB8827E4
:1056E00080F91092E90006C0809131039091320355
:1056F000911182609091E800977F9093E8008093E9
:10570000F1001092F1008091E8008E77E5C08823C7
:1057100009F4D3C0823009F0E3C0809137038111CE
:10572000D6C0809139038F702FEF280F263008F0F4
:10573000D7C08093E9002091EB0020FFC8C09330D0
:1057400031F48091EB0080628093EB00C0C09091B7
:10575000EB0090619093EB0021E030E001C0220F5C
:105760008A95EAF72093EA001092EA008091EB0014
:105770008860EACF8111B4C0109137031F77809100
:10578000E3008078812B8093E3008091E800877F9D
:105790008093E8000E9453298091E80080FFFCCFAD
:1057A0008091E30080688093E30082E0111183E040
:1057B0008093340395C08058823008F091C0809166
:1057C0003703909138038C3D23E09207A1F583E0E5
:1057D0008A838AE289834FB7F894DE01139620E02A
:1057E0003EE051E2E32FF0E050935700E49120FFB8
:1057F00003C0E295EF703F5FEF708E2F90E0EA30CC
:10580000C0F0C7968D939D932F5F243159F74FBFFA
:105810008091E800877F8093E8006AE270E0CE0123
:1058200001960E9462288091E8008B778093E800BF
:1058300057C0C096E7CF6091390370913A03AE012B
:105840004F5F5F4F0E948E27BC01892B09F448C02F
:105850009091E800977F9093E80089819A810E9457
:10586000C028E1CF8038E1F58091E800877F809300
:10587000E800809130038093F10045CF811130C062
:1058800090913703923060F58091E800877F809394
:10589000E800909330030E945329809130038823BD
:1058A00011F084E005C08091E30087FDFACF81E02C
:1058B000809334030E94902613C080913703813077
:1058C00079F481E0933009F080E080933203109204
:1058D000E9008091E800877F8093E8000E945329C7
:1058E0008091E80083FF0AC08091E800877F809361
:1058F000E8008091EB0080628093EB00AA960FB6DF
:10590000F894DEBF0FBECDBFDF91CF911F910895F8
:105910000895CF93809134038823A1F0C091E900CA
:10592000CF709091EC00892F817090FD80E8C82B9A
:105930001092E9008091E80083FD0E94362BCF7021
:10594000C093E900CF91089587FB082E062687FDB6
:10595000819567FD61950E94E02C0EF4919507FCFE
:1059600081950895AA1BBB1B51E107C0AA1FBB1F4D
:10597000A617B70710F0A61BB70B881F991F5A95DB
:10598000A9F780959095BC01CD01089597FB072E4E
:1059900016F4009407D077FD09D00E94B22C07FCC2
:1059A00005D03EF4909581959F4F0895709561952F
:1059B0007F4F0895EE0FFF1F0590F491E02D09949D
:1059C000991B79E004C0991F961708F0961B881F51
:1059D0007A95C9F780950895FC014150504030F008
:1059E00001900616D1F73197CF010895882799279E
:1059F0000895F999FECF92BD81BDF89A992780B597
:105A00000895A6E1B0E044E050E00C94332DA8E105
:105A1000B0E042E050E00C94332D262FF999FECFF0
:105A200092BD81BDF89A019700B4021639F01FBAF1
:105A300020BD0FB6F894FA9AF99A0FBE089503960E
:105A4000272F0E940E2D0E940D2D252F0E940E2D16
:105A5000242F0C940E2D0196272F0E940E2D0C94AE
:105A60000D2DDC01CB01FC01F999FECF06C0F2BD82
:105A7000E1BDF89A319600B40D9241505040B8F70C
:105A80000895F894FFCF6A046D04720477047C04CF
:105A9000810486048B04900495049A049F04A30453
:105AA000AD04B704C604D104DC04DE04E904F01636
:105AB000F016481748179A17B6171D171D17F8172D
:105AC000841893189318EF181D171D17F8185819F4
:105AD0005819611961196319611961196119581906
